:020000040800F2
:10000000480C0020890100087716000853140008E6
:10001000751600088F020008151E00080000000079
:10002000000000000000000000000000DD180008D3
:100030009102000800000000DB180008DF1800082B
:10004000A3010008A3010008A3010008A301000800
:10005000A3010008A3010008A3010008A3010008F0
:10006000A3010008A3010008A3010008A3010008E0
:10007000A3010008A3010008A3010008A3010008D0
:10008000A3010008A3010008A3010008A3010008C0
:10009000A3010008A3010008A3010008A3010008B0
:1000A000A3010008A3010008A3010008A3010008A0
:1000B000A3010008A3010008A3010008A301000890
:1000C000A3010008A3010008A3010008A301000880
:1000D000A3010008091E0008A3010008A3010008ED
:1000E000A3010008A3010008A301000800F002F822
:1000F00000F03AF80AA090E8000C82448344AAF188
:100100000107DA4501D100F02FF8AFF2090EBAE885
:100110000F0013F0010F18BFFB1A43F0010318473B
:10012000C02B0000E02B0000103A24BF78C878C133
:10013000FAD8520724BF30C830C144BF04680C60ED
:10014000704700000023002400250026103A28BF35
:1001500078C1FBD8520728BF30C148BF0B60704739
:100160001FB51FBD10B510BD00F05CF81146FFF7BC
:10017000F7FF01F0F3FE00F07AF803B4FFF7F2FFA7
:1001800003BC00F07DF8000009488047094800479B
:10019000FEE7FEE7FEE7FEE7FEE7FEE7FEE7FEE737
:1001A000FEE7FEE704480549054A064B7047000094
:1001B00041190008ED00000848060020480C002006
:1001C00048080020480800204FF0000200B5134600
:1001D00094469646203922BFA0E80C50A0E80C5067
:1001E000B1F12001BFF4F7AF090728BFA0E80C5018
:1001F00048BF0CC05DF804EB890028BF40F8042B11
:1002000008BF704748BF20F8022B11F0804F18BF7D
:1002100000F8012B704770477047704700487047DF
:10022000E40500207546FFF7F9FFAE460500694674
:10023000534620F00700854618B020B5FFF7B2FFFF
:10024000BDE820404FF000064FF000074FF00008D7
:100250004FF0000B21F00701AC46ACE8C009ACE858
:10026000C009ACE8C009ACE8C0098D46704710B5BC
:100270000446AFF300802046BDE81040FFF77DBF85
:1002800001491820ABBEFEE7260002007047FEE7DA
:10029000704772B6FEE710B590F8211000220229CF
:1002A00005D00421816380F82020012010BD016861
:1002B0000B6823F00E030B6001680B6823F0010349
:1002C0000B6090F84030C46B012101FA03F36360C6
:1002D00080F8211080F82020104610BD10B590F84D
:1002E00021100024022903D00421816301243DE070
:1002F00001680A6822F00E020A6001680A6822F0AA
:1003000001020A601A4A0168914201D1012121E0EB
:10031000174A1432914201D110211BE0144A2832AD
:10032000914201D1891515E0114A3C32914201D127
:1003300089140FE00E4A5032914202D14FF48031BD
:1003400008E00B4A6432914202D14FF4801101E07F
:100350004FF08071064A083A5160012180F821105F
:10036000002180F82010416B01B18847204610BD64
:100370000800024070B5044600F004F90546601C10
:1003800002D004480078044400F0FCF8401BA0426E
:10039000FAD370BDA00000202DE9F84FDFF8B89126
:1003A0000024A9F1040B23460F2709F1040AABF13D
:1003B000040EC9E00125A5402A40AA427DD1674E1E
:1003C000D1F804C0ACEB0608B44532D014DCBCF163
:1003D000030F3AD009DCBCF1000F2AD0BCF1010FA9
:1003E0001CD0BCF1020F31D11DE0BCF1110F17D0B0
:1003F000BCF1120F2AD119E0B8F5881F19D006DC1C
:10040000B8F5803F15D0B8F5801F1FD111E0B8F5C1
:10041000001F0ED0B8F5041F18D10AE0CB6815E014
:10042000CB681B1D12E0CB6808330FE0CB680C33A0
:100430000CE08B682BB1012B4FF0080303D0456112
:1004400004E0042302E0056100E00023FF2A01D854
:10045000064601E000F104064FEA840501D9A5F142
:100460002005D6F8008007FA05FC28EA0C0803FAF4
:1004700005F548EA0508C6F800804D68ED0062D52C
:10048000374DAE6946F00106AE61AD6924F0030652
:1004900005F001050095334D06EB050CDCF808501E
:1004A000A607360F07FA06F825EA0805DFF8B88030
:1004B000404503D14FF0000817E044E0DFF8AC807E
:1004C000404502D14FF001080FE0DFF8A48040451D
:1004D00002D14FF0020808E0DFF89880404502D1D1
:1004E0004FF0030801E04FF0040808FA06F848EA64
:1004F0000508CCF808804D68D9F80060ED024D463B
:1005000001D5164300E096432E604D68DAF800608E
:10051000AD02554601D5164300E096432E604D6866
:10052000DBF80060AD035D4601D5164300E096435D
:100530002E604D68DEF80060ED03754601D5164368
:1005400000E096432E60641C0D682A46E5407FF467
:1005500031AFBDE8F88F0000080401400000111021
:10056000001002400000014000080140000C014062
:1005700000100140001401400AB1016170470904F4
:10058000FBE700000148806870470000A0000020E1
:10059000024881680278114481607047A000002001
:1005A000074810B5016841F010010160032000F018
:1005B00075F8002000F006F800F024F8002010BDC7
:1005C0000020024070B50D4D04464FF47A71287832
:1005D000B1FBF0F00A490968B1FBF0F000F0DCFA79
:1005E00048B9102C07D200222146501E00F036F8E0
:1005F00000206C6070BD012070BD0000A0000020D4
:10060000AC0000200C4808B5816941F0010181610E
:10061000816901F001010091C16941F08051C1611E
:10062000C06900F0805000900448416821F0E0610A
:1006300041F00071416008BD00100240000001401F
:10064000002809DB00F01F020121914040098000D1
:1006500000F1E020C0F8001170470000F0B40E4B2C
:100660001B680C46C3F30223C3F10705042D00D910
:100670000425191D072901D2002300E0DB1E0126F5
:1006800006FA05F1491E214099409E40761E16400B
:100690003143F0BC01F0BFBB0CED00E0064900F0B7
:1006A000070208684FF6FF03184040EA0220034A99
:1006B00010430860704700000CED00E00000FA05F0
:1006C0002DE9F0470F46050061D0434E306800F039
:1006D0000700B84209D2306820F007003843306084
:1006E000306800F00700B84251D128683B4C8107C0
:1006F00012D5400703D5606840F4E0606060287858
:10070000000703D5606840F4605060606068A968C5
:1007100020F0F000084360602878C00728D068689F
:10072000012810D02168022810D0890700292EDA6C
:10073000616821F0030101436160FFF723FF8046F8
:1007400041F288390DE021688903EFE78901EDE77F
:10075000FFF718FFA0EB0801494502D90320BDE8C7
:10076000F0876068696800F00C00B0EB810FEFD192
:10077000306800F00700B8420BD9306820F007005D
:1007800038433060306800F00700B84201D00120E3
:10079000E5E72878400705D56068E96820F4E0605F
:1007A000084360602878000706D56068296920F44E
:1007B000605040EAC100606000F038F86168084AA3
:1007C000C1F30311515CC84006490860064800683F
:1007D000FFF7F8FE0020C2E70020024000100240B0
:1007E000C62C0008AC000020A400002004480549E5
:1007F00000684968044AC1F30221515CC84070474F
:10080000AC00002000100240D62C00080448054926
:1008100000684968044AC1F3C221515CC84070476E
:10082000AC00002000100240D62C00080E4A51688F
:100830000E4801F00C03042B11D0082B0FD10C48EB
:10084000C1F38343C903C05C0AD55168084AC1F3A8
:100850004041921E515C054A5043B0FBF1F0704795
:1008600004494843704700000010024000127A001B
:10087000B62C000800093D002DE9F84F040070D0A7
:100880002078C04DC00749D06868C0F381000128B6
:1008900007D06868C0F38100022809D16868C003E6
:1008A00006D52868800339D560680028E7D035E090
:1008B0006068B0F5803F0BD010B1B0F5A02F11D01B
:1008C000286820F480302860286820F4802002E026
:1008D000286840F480302860606890B1FFF752FECD
:1008E00006460AE0286840F480202860F0E700BF50
:1008F000FFF748FE801B642873D828688003F7D56B
:100900000CE0FFF73FFE064605E000BFFFF73AFEAA
:10091000801B6428F0D828688003F7D420789A4E8A
:1009200080074FF001094FF0000839D5686810F0D2
:100930000C0F07D06868C0F38100022809D16868ED
:10094000C00306D42868800714D52069012808D17F
:1009500010E02069B0B1C6F80090FFF713FE07461B
:1009600005E00AE1FFF70EFEC01B0228C4D8286884
:100970008007F7D52868616920F0F80040EAC100D7
:1009800028600DE0C6F80080FFF7FCFD074604E094
:10099000FFF7F8FDC01B022823D828688007F7D48A
:1009A000207800072CD57948A169D9B1C0F800900A
:1009B000FFF7E8FD074604E0FFF7E4FDC01B02284F
:1009C0000FD8686A8007F7D571484FF4FA5100686C
:1009D000B0FBF1F0009000BF0098411E0091FAD2E8
:1009E0000EE080E0C0F80080FFF7CCFD074604E091
:1009F000FFF7C8FDC01B022875D8686A8007F7D4C6
:100A00002078400760D5E8690027C00008D4E8696D
:100A100040F08050E861E869012700F080500090C4
:100A20005C480168C90513D40168834641F48071AC
:100A30000160FFF7A7FD824606E000BFFFF7A2FDB9
:100A4000A0EB0A0064284ED8DBF80000C005F5D5FD
:100A5000E06801280AD008B1052813D0286A20F0E0
:100A600001002862286A20F0040002E0286A40F0B1
:100A700001002862E06841F2883B98B1FFF782FDEF
:100A800082460BE0286A40F004002862EEE700BFCF
:100A9000FFF778FDA0EB0A0159455AD8286A80076C
:100AA000F6D50CE0FFF76EFD824605E0FFF76AFD24
:100AB000A0EB0A0159454CD8286A8007F6D41FB12B
:100AC000E86920F08050E861E06988B36968C1F3A3
:100AD0008101022944D00228C6F8608004D0FFF7C3
:100AE00051FD044638E034E0FFF74CFD074604E0D2
:100AF000FFF748FDC01B02282BD828688001F7D4D7
:100B0000206AB0F5803F05D16868A16820F4003004
:100B100008436860D4E908010843696821F4741146
:100B200008436860C6F86090FFF72CFD044606E0B5
:100B300025E000BFFFF726FD001B022809D8286822
:100B40008001F7D51BE000BFFFF71CFD001B02284A
:100B500002D90320BDE8F88F28688001F4D40EE0A4
:100B60000128F7D06868226A00F48031914204D1EC
:100B7000616A00F47010884201D00120EAE7002089
:100B8000E8E70000001002400000424280044242B8
:100B9000AC0000200070004010B5401EB0F1807F16
:100BA00001D3012010BD4FF0E02460610F216017D8
:100BB00001F031F90020A06107202061002010BD64
:100BC00070B590F83C20012A26D0012480F83C40E2
:100BD000022280F83D2003685A689D6822F0700662
:100BE0000A6832435A600D4B02689A4208D0B2F14B
:100BF000804F05D00A4B9A4202D00A4B9A4204D148
:100C0000496825F080031943916080F83D40002138
:100C100080F83C10084670BD022070BD002C0140D9
:100C2000000400400008004010B5040003D094F810
:100C30003D0010B107E0012010BD002084F83C0009
:100C4000204600F01FF8022084F83D00211D206896
:100C500000F078FE012084F8460084F83E0084F815
:100C60003F0084F8400084F8410084F8420084F892
:100C7000430084F8440084F8450084F83D000020D7
:100C800010BD000008B501680B48B1F1804F0BD0D2
:100C90000A4A914207D1C16941F00201C161C069AC
:100CA00000F00200009008BDC16941F00101C1617E
:100CB000C06900F00100F5E70010024000040040A8
:100CC00070B5044690F83C000025012817D0012695
:100CD00084F83C60022084F83D002068826822F09D
:100CE000770222F47F4282600868502838D00DDCF9
:100CF00020284FD005DC90B3102811D14AE0022003
:100D000070BD302846D040280AD13BE060282FD063
:100D100070280DD0B0F5805F03D0B0F5005F12D021
:100D2000012584F83D60002084F83C00284670BD11
:100D3000CB68D1E90121206800F04DFE2068816870
:100D400041F0770109E0CB68D1E90121206800F08A
:100D500042FE2068816841F480418160E1E719E04A
:100D6000CA684968206800F0EBFE5021206806E060
:100D7000CA684968206800F0F4FE6021206800F02D
:100D800034FECEE7CA684968206800F0D9FE4021E9
:100D90002068F4E7226801461046F0E710B586B0F7
:100DA00000210091019102910391036811490222EF
:100DB0001148B3F1804F13D0104CA3420ED18B6970
:100DC00043F004038B61896901F004010491C0219F
:100DD000CDE9001269460392FFF7DEFA06B010BDB6
:100DE0008B6943F004038B61896901F0040104916C
:100DF0000F21EDE700100240000801400004004010
:100E000070B5044690F83C0000260D4601280FD02E
:100E1000012084F83C006AB1042A1DD0082A2FD092
:100E20000C2A3FD00126002084F83C00304670BDDB
:100E3000022070BD206800F0E1FD2068816941F06A
:100E4000080181612068816921F0040181612068C5
:100E500081692A69114311E0206800F0F7FD2068DC
:100E6000816941F4006181612068816921F48061B8
:100E70008161206881692A6941EA02218161D2E7A2
:100E8000206800F00FFE2068C16941F00801C161CF
:100E90002068C16921F00401C1612068C1692A6923
:100EA000114311E0206800F029FE2068C16941F477
:100EB0000061C1612068C16921F48061C16120685D
:100EC000C1692A6941EA0221C161ACE710B5040099
:100ED00003D094F83D0010B107E0012010BD0020C0
:100EE00084F83C00204600F01EF8022084F83D0003
:100EF000211D206800F026FD012084F8460084F8BA
:100F00003E0084F83F0084F8400084F8410084F8F3
:100F1000420084F8430084F8440084F8450084F8D3
:100F20003D00002010BD704710B50446022249B1B3
:100F300004290ED0082913D094F84100012816D0B6
:100F4000012010BD94F83E000128F9D184F83E201C
:100F50000FE094F83F000128F2D184F83F2008E028
:100F600094F840000128EBD184F8402001E084F897
:100F700041200122206800F021FD0F4920688842AD
:100F800003D1426C42F4004242642068884208D097
:100F9000B0F1804F05D00949884202D00849884203
:100FA00004D1816801F00701062903D0016841F0EE
:100FB00001010160002010BD002C01400004004030
:100FC0000008004070477047F8B50168044608689B
:100FD000CA684B6910F00F0F4FF0000559D003F0AD
:100FE000010602F49077374365D0C10705D0D105DB
:100FF00003D5616C41F001016164410705D5D90752
:1010000003D0616C41F002016164810705D5D90705
:1010100003D0616C41F004016164010707D502F05F
:101020002001314303D0616C41F008016164616CBF
:1010300000293AD0800604D5900602D5204600F05B
:10104000D1FD20684069616CC0F38010090700D4AD
:1010500060B3204600F09FFD20684069400621D51E
:101060002068143050E8001F21F0400140E80012D1
:10107000002AF5D1E06BA8B16D494163E06BFFF741
:101080002DF9002811D0E06B416B01B0BDE8F040B4
:10109000084783060FD593060DD52046BDE8F840D6
:1010A00000F0A0BD2046FFF78EFFF8BD2046FFF7F9
:1010B0008AFF6564F8BD266B2023012E7CD1C6060D
:1010C0007AD5D60678D508684868009048694FF008
:1010D0000206400640D5E16B086840680004000C39
:1010E000E8D0A28D8242E5D9E085886920282DD0FC
:1010F00020680C3050E8001F21F4807140E8001295
:10110000002AF5D12068143050E8001F21F00101B9
:1011100040E80012002AF5D12068143050E8001F82
:1011200021F0400140E80012002AF5D184F8423055
:10113000256320680C3050E8001F21F0100140E8C2
:101140000012002AF5D1E06BFFF7A5F86663A08DC9
:10115000E18D401A81B22AE0A08DE18D401A81B262
:10116000E08D0028A6D00029A4D022680C3252E8D5
:10117000000F20F4907042E80007002FF5D120689E
:10118000143050E8002F22F0010240E80027002F21
:10119000F5D184F84230256320680C3050E8002FE8
:1011A00022F0100240E80023002BF5D166632046B0
:1011B000FFF708FFF8BDFFE705062BD5150629D573
:1011C00094F841002128F5D1A068B0F5805F01D1E5
:1011D0002069B0B1206A411C216221680078486012
:1011E000E08C401E0004000CE084E3D12068C1685C
:1011F00021F08001C1602068C16841F04001C160F8
:10120000D8E7206A0088C0F308004860206A801C84
:101210002062E5E74006CDD55006CBD5CA6820460A
:1012200022F04002CA6084F8413000F011F9C1E7B1
:10123000871B000870B5040004D094F84100002515
:1012400010B106E0012070BD84F84050204600F047
:1012500023F8242084F841002068C16821F400515B
:10126000C160204600F020FD2068016921F4904112
:1012700001612068416921F02A0141612068C1684B
:1012800041F40051C1606564202084F8410084F875
:1012900042006563002070BD70B586B000240094E4
:1012A00001940294039403682B482A4E02210322DE
:1012B0000515B34229D1836943F48043836183696F
:1012C00003F480430493836943F0040383618069DA
:1012D000224E00F0040004900802CDE900010392C0
:1012E00069463046FFF758F8CDE900546946304664
:1012F0000294FFF751F8002211462520FFF7AEF9BE
:101300002520FFF79DF906B070BD154EB342FAD106
:10131000C36943F48023C361C36903F48023049346
:10132000836943F0080383618069CDE9005100F0CF
:101330000800CDE903200B4D69462846FFF72CF83D
:10134000E814CDE90004694628460294FFF724F822
:10135000D9E70000003801400010024000080140B9
:1013600000480040000C014090F84230202B01D092
:101370000220704721B11AB10023036300F0F0BCD2
:101380000120704710B500680649884203D106481D
:10139000007800F027FEBDE8104001220249034812
:1013A000FFF7E2BF003801400000002040010020AC
:1013B0002DE9F843044690F84100984616460D463C
:1013C000202802D00220BDE8F88385B17EB100203C
:1013D0006064212084F84100FFF7D4F8A684814698
:1013E000E684A0682027B0F5805F02D003E00120EA
:1013F000E9E7206910B12E4600250EE000260CE03A
:101400008021204600F0C7FCA8B9C6B116F8010B30
:1014100021684860E08C401EE084E08C4B464FF031
:101420000002CDF800800028EAD14FF040012046AC
:1014300000F0B1FC40B184F841700320C3E735F8F7
:10144000020BC0F30800E3E784F841700020BAE71C
:101450007047FEE70D4808B5816941F020018161C0
:10146000816901F020010091816941F004018161ED
:10147000816901F004010091816941F008018161F5
:10148000806900F00800009008BD000000100240D4
:1014900010B58EB000240794089409940A940B9414
:1014A0001C2168460C94FEF78FFE2A484FF08041BD
:1014B00001604721C0E9011444F61F61C0E903142B
:1014C00080218161FFF7B0FB08B1FEF7E2FE4FF427
:1014D0008050079007A91F48FFF7F2FB08B1FEF7FD
:1014E000D8FE1C48FFF7F2FC08B1FEF7D2FE0B94C1
:1014F0000BA918480C94FFF763FB08B1FEF7C9FE6F
:101500006020CDE900040294002269461148049449
:10151000FFF776FC08B1FEF7BCFE042269460D48D1
:10152000FFF76EFC08B1FEF7B4FE082269460948D1
:10153000FFF766FC08B1FEF7ACFE0C2269460548D1
:10154000FFF75EFC08B1FEF7A4FE0248FFF726FC99
:101550000EB010BDB000002010B58EB0002407946E
:10156000089409940A940B941C2168460C94FEF785
:101570002BFE2348214901604721C0E9011444F6AC
:101580001F61C0E9031480218161FFF74DFB08B1A1
:10159000FEF77FFE4FF48050079007A91848FFF729
:1015A0008FFB08B1FEF775FE1548FFF78FFC08B1F9
:1015B000FEF76FFE0B940BA911480C94FFF700FB8C
:1015C00008B1FEF766FE6020CDE900040294002217
:1015D00069460B480494FFF713FC08B1FEF759FE67
:1015E000042269460648FFF70BFC08B1FEF751FEDE
:1015F0000348FFF7D3FB0EB010BD0000000400400D
:10160000F80000200C4810B50A4901604FF4E131A0
:101610004160002181600C22C160C0E90412816137
:10162000C161FFF707FE002803D0BDE81040FEF7B8
:1016300030BE10BD00380140400100200C4810B5FC
:101640000A4901604FF4E1314160002181600C22C0
:10165000C160C0E904128161C161FFF7EBFD0028A0
:1016600003D0BDE81040FEF714BE10BD0048004096
:1016700088010020FEE7FEE710B50021074C0A466E
:10168000002004EBC1131A54401CC0B28028FAD3C6
:10169000491CC9B20829F3D310BD0000D0010020B5
:1016A00010B586B000214FF47A720020401C9042A1
:1016B000FCD3491C9142F8D3002000900190029085
:1016C00003901148816941F00801816180690F4CE4
:1016D00000F0080004900022C0212046FEF74CFFD5
:1016E000C02000901120019001200290032003905F
:1016F00069462046FEF750FE012000F0B5F80120B3
:1017000000F0BAF806B010BD00100240000C014015
:1017100070B500240646802525FA04F0304000D03C
:10172000012000F0A9F8012000F09EF8002000F050
:101730009BF8641CE4B2082CEED3012000F094F86E
:10174000BDE87040002000F08FB810B5012000F017
:1017500093F8012000F088F8002000F08DF8BDE833
:101760001040002000F080B810B5002000F084F890
:10177000012000F079F8BDE81040012000F07CB8AD
:1017800010B5FFF78DFFAE2000F07EF8D52000F0F9
:101790007BF8802000F078F8A82000F075F83F2052
:1017A00000F072F8D32000F06FF8002000F06CF821
:1017B000402000F069F8A12000F066F8C82000F091
:1017C00063F8DA2000F060F8122000F05DF8812064
:1017D00000F05AF8CF2000F057F8D92000F054F864
:1017E000F12000F051F8DB2000F04EF8302000F03E
:1017F0004BF8A42000F048F8A62000F045F88D2012
:1018000000F042F8142000F03FF8AF2000F03CF860
:10181000FFF732FFBDE8104000F012B810B50C46DB
:1018200040F0B00000F030F8102040EA141000F052
:101830002BF804F00F00BDE8104000F025B80000C0
:1018400070B5084D002400212046FFF7E7FF05EBA7
:10185000C410802100F029F8641CE4B2082CF2D3F3
:1018600070BD0000D0010020024640210148FEF773
:1018700083BE0000000C0140024680210148FEF7B3
:101880007BBE0000000C014010B50446FFF75DFF71
:101890007820FFF73DFF0020FFF73AFF2046FFF7D3
:1018A00037FFBDE81040FFF75FBF70B50D46064635
:1018B000FFF74BFF7820FFF72BFF4020FFF728FFB3
:1018C000002404E0305DFFF723FF641CE4B2AC4267
:1018D000F8D3BDE87040FFF747BF70477047FEF789
:1018E00057BE30B58FB028216846FEF76DFC142135
:1018F0000AA8FEF769FC01210804CDE900100024C4
:10190000029402250491CDE907504FF4E0100990AC
:101910006846FEF7B1FF08B172B6FEE70F20CDE9C9
:101920000A054FF48060CDE90C4002210AA80E940C
:10193000FEF7C6FE002801D072B6FEE70FB030BD3C
:1019400070470000F0B50268194B1A4C1A4D4FF061
:101950008047984205D0B84203D0A04201D0A842A7
:1019600003D122F070064A683243984205D0B8424B
:1019700003D0A04201D0A84203D122F44074CA6827
:1019800022434C6922F08002224302608A68C262CC
:101990000A688262984201D10969016301214161AB
:1019A0000169C90703D0016921F001010161F0BD9E
:1019B000002C0140000400400008004010B501F078
:1019C0001F030121046A99408C430462016A9A4012
:1019D0001143016210BD10B5846842EA032224F469
:1019E0007F440A432243826010BD826822F0700265
:1019F0000A4342F0070181607047000030B5036A76
:101A0000026A22F0010202624268846924F07305CE
:101A10000C682C4323F002058B682B430A4DA84227
:101A20000BD123F00805CB6822F440722B434D699B
:101A300023F0040315438A692A434260846149689C
:101A40004163036230BD0000002C014030B5026AE2
:101A5000036A23F010030362436884690D6824F469
:101A6000E64444EA05248D6822F0200242EA051289
:101A70000B4DA8420ED1CD6822F0800242EA051239
:101A80004D6923F4406343EA85038D6922F04002E7
:101A900043EA85034360846149688163026230BD23
:101AA000002C014030B5036A026A22F4807202629F
:101AB0004268C46923F4007324F073050C682C4356
:101AC0008D6843EA05230C4DA8420ED1CD6823F45E
:101AD000006343EA05234D6922F4405242EA0512AD
:101AE0008D6923F4806342EA05124260C46149684B
:101AF000C163036230BD0000002C014030B5046AB0
:101B0000026A22F4805202624268C3690D6823F4BB
:101B1000E64343EA05238D6824F4005444EA05347F
:101B2000064DA84204D14D6922F4804242EA851252
:101B30004260C36149680164046230BD002C014009
:101B400010B5036A046A24F001040462846924F075
:101B5000F00444EA021423F00A020A438461026298
:101B600010BD10B5036A046A24F01004046284698D
:101B700023F0A00324F4704444EA023243EA011142
:101B80008261016210BD10B5406A0021C185C18427
:101B9000FFF719FA10BD01680C3151E8002F22F44B
:101BA000907241E80023002BF5D10168143151E80F
:101BB000002F22F0010241E80023002BF5D1016B38
:101BC000012909D101680C3151E8002F22F01002DF
:101BD00041E80023002BF5D1202180F8421000219C
:101BE0000163704708B590F84210222901D0022005
:101BF00008BD82684FF480539A4201D1016921B136
:101C0000816A9A421BD04AB10AE00268816A52682E
:101C1000C2F308020A80816A891C08E0026972B175
:101C20000268526802F07F020A70816A491C816270
:101C3000C18D491E0904090CC18503D01BE002684F
:101C40005268F1E70168CA6822F02002CA600168A0
:101C5000CA6822F48072CA6001684A6922F00102EF
:101C60004A61202180F8421000214163026B012A61
:101C700003D0FFF787FB002008BD016301680C312A
:101C800051E8002F22F0100241E80023002BF5D18B
:101C900001680A68D20602D50A6849680091818DF8
:101CA000FFF790F9E7E7000070B5044600680169A6
:101CB000E26821F44051114301612169A0680843A1
:101CC000616908432168CA6841F20C639A43024380
:101CD000CA6020684169A26921F4407111434161E1
:101CE0001E492068884202D1FEF790FD01E0FEF710
:101CF0007DFD00EBC00101EB0012606864218000F3
:101D0000B2FBF0F3B3FBF1F36FF018067343B2FBD1
:101D1000F0F5B2FBF0F605EB8305322303EB051576
:101D2000B5FBF1F5B6FBF1F605F0F00505EB061590
:101D3000B2FBF0F6B2FBF0F0B0FBF1F06FF018027E
:101D4000504306EB800003EB0010B0FBF1F021687C
:101D500000F00F002844886070BD0000003801408A
:101D600081628285C28500214164222180F842106F
:101D7000016921B10168CA6842F48072CA600168D1
:101D80004A6942F001024A610068C16841F02001DD
:101D9000C160002070472DE9F843984617460D466C
:101DA0000446089E24E0701C22D0FEF7EBFBA0EB5B
:101DB0000800B0421AD8CEB12068C168490717D5CB
:101DC000802D15D0402D13D00168C94309070FD4C9
:101DD00001680025406800902046FFF7DCFE0820DF
:101DE000606484F840500120BDE8F8830320FBE7DD
:101DF0002068006835EA000004D00020B842D2D044
:101E00000020F1E70120F9E70148FFF7DDB8000005
:101E100040010020FEE70907090E002804DB00F15D
:101E2000E02080F80014704700F00F0000F1E0207F
:101E300080F8141D704700002DE9F05F15469946A3
:101E40000022404BDDF82CB0DDF840A000F062FA33
:101E50003D4E0022334600F00FFD3C4F00223B4632
:101E600000F00CFBDFF8E8800022434600F052FA55
:101E7000384C2A46384DC4E900014B46002029461B
:101E800000F02EFE0022334600F0F6FC00223B4616
:101E900000F0F4FA0022434600F03CFAC4E90201E3
:101EA00000222B4659460A9800F034FA00223346A5
:101EB00000F0E2FC00223B4600F0E0FA002243463C
:101EC00000F028FAC4E90401DDE90C0100222B46E8
:101ED00000F020FA0022334600F0CEFC00223B4600
:101EE00000F0CCFA0022434600F014FAC4E90601DF
:101EF000DDE90E0100222B4600F00CFA00223346E9
:101F000000F0BAFC00223B4600F0B8FA002243463B
:101F100000F000FAC4E9080100222B46504611994E
:101F200000F0F8F90022334600F0A6FC00223B4600
:101F300000F0A4FA0022434600F0ECF9C4E90A01DB
:101F4000BDE8F09F0000244000409F4000806640B4
:101F500000407F4008000020008056408AB0FEF715
:101F60001FFBFFF70DFCFFF787FBFFF7BAFCFFF73E
:101F700071FAFFF78DFAFFF7EFFAFFF743FBFFF770
:101F80005DFB012211491248FFF7EEF900F0E4F879
:101F900000F002F941208DF820004FF6FF73012276
:101FA00008A90C48FFF704FA00200B49CDE904000A
:101FB000CDE906010949CDE902000B46CDE9000152
:101FC0000246074900F05CF8FEE700000000002030
:101FD0004001002088010020000024C0008046400D
:101FE00000005E4070B52449244B0A464E781478B0
:101FF000621CD5B2002236B1012E08D0022E18D0B4
:10200000032E2AD005E02C2803D101220CE012284F
:1020100009D04A700A70002023F81020401CC0B27A
:102020000A28F9D370BD02224A7023F814000D70FB
:1020300070BD23F814000D70082D01D25B28F7D174
:102040009888C88018899C7940EA0420488098893B
:102050009B7A40EA032088800BE05B2809D04A7015
:102060000A70002023F81020401CC0B20A28F9D3BF
:1020700070BD0A704A7070BD88000020D005002035
:102080002DE9F04F89B012AC994682468B4694E810
:10209000EB118DE8EB112D4C4B4650465946FFF79E
:1020A000CBFE2B4D00221346D5E9000100F03EFB8C
:1020B00005D0D5E9000100F075FB21684863D5E93A
:1020C00002010022134600F031FB05D0D5E90201E0
:1020D00000F068FB21688863D5E9040100221346FB
:1020E00000F024FB05D0D5E9040100F05BFB21687A
:1020F000C863D5E906010022134600F017FB05D09E
:10210000D5E9060100F04EFB21680864D5E9080115
:102110000022134600F00AFB06D0D5E9080100F0C2
:1021200041FB0C4909684863D5E90A0100221346BE
:1021300000F0FCFA06D0D5E90A0100F033FB0549AE
:102140000968886309B0BDE8F08F0000B000002086
:1021500008000020F800002010B500210C48FEF710
:10216000E3FE04210A48FEF7DFFE08210848FEF7D7
:10217000DBFE0C210648FEF7D7FE00210548FEF7DE
:10218000D3FEBDE8104004210248FEF7CDBE00009A
:10219000B0000020F80000201FB510480E4A0021B2
:1021A000C0E91412C0E91611C0E91811C0E91A11EA
:1021B000C0E91C110A4AC0E91E121420FEF7DAF821
:1021C0000020CDE90200CDE90000024603460249A5
:1021D00000F008F81FBD00000080564008000020F5
:1021E000008056C02DE9FF5F464892B0DFF818B175
:1021F000D0E91412CDE90812D0E91612CDE90A127D
:10220000D0E91812CDE90C12D0E91A10CDE90E1060
:102210004FF0000A01200025109009E00024264616
:1022200035B1012D07D0022D08D0032D0BD108E0C8
:10223000DDE9124607E0DDE9144604E0DDE9204669
:1022400001E0DDE9224608A800EBC50081460CC884
:102250002046314600F044FC8846074621F0004104
:1022600052465B4600F006FC14D200221346384664
:10227000414600F0FFFB504601D2594601E08BF089
:102280000041D9E9002300F045F8C9E90001002028
:10229000109001E0C9E900466D1C042DBEDB002052
:1022A0001A49CDE90400CDE90601DDE90E01CDE9C9
:1022B0000201DDE90C0108ACCDE9000194E80F0052
:1022C000FFF7DEFE1420FEF755F810980028A1D085
:1022D00000200F49CDE90400CDE90601DDE90E013A
:1022E000CDE90201DDE90C01CDE9000194E80F0020
:1022F000FFF7C6FE4FF47A70FEF73CF816B0BDE863
:10230000F09F0000080000200000F03F008056C051
:10231000000024C010B591EA030F48BF83F00043CA
:1023200000F1E683841A71EB030C05D2121943EB1A
:102330000C03001B61EB0C01DFF824E14FEA1154A0
:10234000A4EB135C1EEA430F18BF9EEA445F73D0F0
:1023500023EA0E03DCF1200E21EA045143F480133A
:1023600032D322FA0CFE10EB0E0023FA0CFE41EBE6
:102370000E01CCF1200E03FA0EFE10EB0E0051F10F
:102380000001B1F5801FCCF1200E32D201EB0451D7
:1023900012FA0EF2BDE8104058BF7047401C38BF1B
:1023A0005FEA420218BF7047002814BF20F0010006
:1023B00041F100014FEA410313F5001F38BF704798
:1023C000A1F1C04100F050BB012A43EB0302ACF184
:1023D000200CDCF11F0E32BF4FF0000E23FA0CF37D
:1023E00010EB030041EB0451B4EB115FD0D0A1EB33
:1023F000045101F5801149085FEA300001EB0451F6
:102400000ED350F1000038BF12FA0EFE08D1BDE81D
:102410001040C9E7401C38BF5FEA4202CAD1C3E797
:10242000BDE810404FEA410313F5001F38BF704765
:10243000A1F1C04100F018BB9EEA445F08D011EA48
:102440005E0FBDE8104004BF01F00041002070475E
:10245000BDE8104070B500F0B9FA00BF64FBBE3EA5
:102460000000E0FF491058BFC1F140415B1058BF68
:10247000C3F140438B42EFF3008070472DE9C04128
:1024800030B4DFF8A0C23CEA111418BF3CEA1314C0
:1024900000F0EC8081EA03051CEA111444EAD574CB
:1024A00018BF1CEA131500F0C780A4EB05044FF019
:1024B000004545EAC12145EAC32341EA505143EAB8
:1024C000525304F17F74994204F500344FEAC0205E
:1024D0004FEAC22208BF904200F09C804FEA136589
:1024E0000FF24016765D4FEA134506FB05F7C7F17C
:1024F000807706FB07F74FEAD737A7FB03687642DA
:10250000C8F58038A7FB06CE38BFA8F1010807FB45
:1025100008E64FF0000EA6FB028CE6FB03CEDCF1D2
:10252000000CCEF1004E38BFAEF1010EA6FB0C58E8
:102530004FF000074FF00005E6FB0E87A1FB08C631
:10254000A0FB07CE16EB0E0645F10005E1FB076583
:1025500015F1E04E7EBFA4F580345FEA46066D417A
:1025600016F1800745F100054FEA17274FEA066686
:1025700047EA0567A6F1DE46B6F1805F4FEA15250A
:102580001FD9384624F0010C05EBC471BCF1FE6F75
:1025900001EB0C1102D8F0BCBDE8008124425CBF05
:1025A00001F5801E9EEAC47F02D4F0BCBDE8008124
:1025B000244238D4F0BCA1F1C041BDE8004100F094
:1025C00053BA4FEAD22242EA43524FEAD323A7FB3F
:1025D00002864FEAD02040EA415007FB03661EEA1C
:1025E0000E0F4FEAD12105FB026658BFA6EB00563D
:1025F000B6EB00564FEA520E4EEAC37E18EB0E0EB3
:1026000056EB530EBDD518EB02085E417F1C55F109
:102610000005B6E74FF480154FF000074FF00006B5
:102620004FF00008ADE7F0BC4FF0000001F1C041F1
:1026300001F00041BDE8008111EA0C1F0CEA1315FE
:1026400000D00CE013EA0C1F00F025804FF00000D2
:10265000F0BC81EA030101F00041BDE80081F0BC5B
:10266000BDE8004181EA030100F0FEB9F0BCBDE81D
:10267000004170B500F0AAF9097EFC3E00F007B8F1
:1026800081EA03014FF0000001F00041704781EA48
:10269000030100F0E9B9F0BCBDE800414FF00000D3
:1026A00021497047FFFDFBF9F7F5F4F2F0EEEDEB91
:1026B000E9E8E6E4E3E1E0DEDDDBDAD8D7D5D4D340
:1026C000D1D0CFCDCCCBCAC8C7C6C5C4C2C1C0BF8C
:1026D000BEBDBCBBBAB9B8B7B6B5B4B3B2B1B0AF92
:1026E000AEADACABAAA9A8A8A7A6A5A4A3A3A2A176
:1026F000A09F9F9E9D9C9C9B9A9999989797969531
:1027000095949393929191908F8F8E8E8D8C8C8BCC
:102710008B8A898988888787868585848483838254
:10272000828181800000FF070000F87F51EA030CDE
:1027300017D41CF5801F58BFBCF5801F00F1068020
:10274000994218BF704708BF9042704707D711F5EC
:10275000801F58BF13F5801F19D4994270478942D2
:1027600070471CF5801F08D5BCF5801FF7D58B423C
:1027700018BF704708BF824270474FF4001C1CEB23
:10278000410F38BF1CEB430F01D28B42704770B52D
:1027900000F01CF9922449004FF000514FF0805393
:1027A000FFF760BE4FEA1153A3F58063D3F11E0318
:1027B000A8BFD3F1200C08DB4FF0004242EAC1224F
:1027C00052EA505232FA03F0704709420BD4102BF0
:1027D000C4BF0020704703F5787CBCF1FF3F05D0F3
:1027E0004FF0FF3070474FF00000704770B500F0B9
:1027F000EDF800BF4992248000207047F0E7000008
:1028000051EA030C17D41CF5801F58BFBCF5801F7C
:1028100000F10680994218BF704708BF9042704788
:1028200007D711F5801F58BF13F5801F19D499429F
:102830007047894270471CF5801F08D5BCF5801F82
:10284000F7D58B4218BF704708BF824270474FF4DC
:10285000001C1CEB410F38BF1CEB430F01D28B4215
:10286000704770B500F0B2F8922449004FF0005163
:102870004FF08053FFF7F6BDDFF848C170B51CEA92
:10288000111E1EBF1CEA13159EEA0C0F95EA0C0FD1
:1028900000F06F8081EA030423EA4C134EEAD47EF1
:1028A00021EA4C1141F4801143F48013AE44A1FBA2
:1028B000024CA0FB0365AEF17F7E361955EB0C058B
:1028C000A1FB034C4CF10003A0FB021C16EB0C0611
:1028D000654153F10003094218BF46F0010613F4A5
:1028E000007F0BD14FEA03314FEA0530340341EA50
:1028F000155140EA16506FF003020AE04FEAC32177
:102900004FEAC520F40241EA555140EA56506FF0B3
:10291000020202EB2E4201EB025585EACE710AD08B
:102920005FEA440C18BF24F0004450F1000041F16C
:10293000000120EAD47040F2FE7C624500D270BDF6
:10294000A84214BF4FF080444FF04044002E08BF0F
:102950000024BEF1806FA8BFA1F1C041BDE8704066
:1029600080F282804FF0000001F1C04101F000418F
:1029700070479EEA0C0F0CEA131518BF95EA0C0F6E
:1029800006D04FF0000081EA030E0EF0004170BD4A
:1029900000F01CF88900013E00F007B800F009B80B
:1029A0004FEA430C5FEA5C5C08D081EA030100F067
:1029B0005BB84FEA410C5FEA5C5CF6D14FF0000077
:1029C000014970470000FF070000F87F0EF1020E7A
:1029D0002EF0030E5EF8046B364205D4012A43EB59
:1029E000030515F5001F12D8012841EB010C1CF559
:1029F000001F0CD80ED14FEAD17C15F5001F0CEB4F
:102A00004C0C0CF1020C08BF4CEBD37C04E04FF0F3
:102A1000080C01E04FEAD37C0CEB4C0526FA05F6D6
:102A200006F00706B6F1040C06D20EEB860CBDE8E4
:102A300070404CF0010C6047DFE80CF0090B02021B
:102A40004FF000414FF00000A1F5002170BD194684
:102A50001046012851EB010418BFD4F5001484BFBF
:102A6000002001F0004170BD0808A0F500114FEAF8
:102A70003101704753EA010C17D41CF5801F58BF71
:102A8000BCF5801F00F106808B4218BF704708BF5D
:102A90008242704707D713F5801F58BF11F5801F7A
:102AA00019D48B4270479B4270471CF5801F08D594
:102AB000BCF5801FF7D5994218BF704708BF9042F8
:102AC00070474FF4001C1CEB430F38BF1CEB410F49
:102AD00001D2994270470FB40CBC03BCFFF7C1BED2
:102AE00010B591EA030F48BF83F000433FF51AACDD
:102AF000841A71EB030C07D212198CF0004C43EBD3
:102B00000C03001B61EB0C01DFF8A4E14FEA115448
:102B1000A4EB135C1EEA430F18BF9EEA445F00F06B
:102B2000B08023EA6E03524221EA0451C3EB6E03E4
:102B300038BF5B1EDCF1200E25D322FA0CFE10EB11
:102B40000E0043FA0CFE41EB0E01CCF1200E03FA0D
:102B50000EFE10EB0E0051F10001CCF1200E29D435
:102B600012FA0EF201EB0451BDE8104058BF704755
:102B7000401C1CBFB2F1004F704700280CBF491C1D
:102B800020F00100704712EB020E43EB030218BF66
:102B90004FF0010E4EEA4202ACF1200CDCF11E0EA9
:102BA00054D943FA0CFE10EB0E0051F1FF31CCF179
:102BB0001E0ED5D50EF1010E12FA0EFE404141EB6C
:102BC000010101EB445C5FEA5C5C10D910EBDE7044
:102BD00001EB045138BFBEF1004FBDE8104018BFF3
:102BE000704700280CBF491C20F00100704730D20C
:102BF0004FEAD42C11F5001124F400641BD0B1FA73
:102C000081F20B3AA41AA41ED2F12003914030FAAB
:102C100003F31943904001EBCC71002C01EB0451FC
:102C2000BDE81040A8BF704701F1C0414FF000005F
:102C300001F000417047B0FA80F310FA03F100D1BF
:102C400010BDE41A173C4805C90AE4E701EB04513A
:102C500010BD491001EB0451BDE810404FEA3000AF
:102C600002E04FF0000170474A0008BF0042F8D070
:102C7000B2F5001F28BF704701F000414FF000007F
:102C800070479EEA445F07D011EA5E0FBDE810402E
:102C900004BF002100207047BDE8104070B5FFF769
:102CA00095FE00BF40DFF63E83F0004110467047BE
:102CB0000000E0FF010202030405060708090A0BF1
:102CC0000C0D0E0F101000000000000000000102AB
:102CD00003040607080900000000010203040000C5
:102CE000002D000800000020B000000028010008AE
:102CF000B02D0008B0000020980B0000440100082F
:102D000000000000000000000000000000000000C3
:102D100000000000000000000000000000000000B3
:102D200000000000000000000000000000000000A3
:102D30000000000000000000000000000000000093
:102D40000000000000000000000000000000000083
:102D50000000000000000000000000000000000073
:102D60000000000000000000000000000000000063
:102D70000000000000000000000000000000000053
:102D80000000000000000000000000000000000043
:102D90000000000000000000000000000000000033
:102DA00001000000100000000000000000127A0086
:04000005080000ED02
:00000001FF
